{
  "contractName": "DeadSwitch",
  "abi": [
    {
      "inputs": [
        {
          "internalType": "address payable",
          "name": "_backupAddress",
          "type": "address"
        }
      ],
      "payable": false,
      "stateMutability": "nonpayable",
      "type": "constructor"
    },
    {
      "constant": true,
      "inputs": [],
      "name": "isAlive",
      "outputs": [
        {
          "internalType": "bool",
          "name": "",
          "type": "bool"
        }
      ],
      "payable": false,
      "stateMutability": "view",
      "type": "function"
    },
    {
      "constant": true,
      "inputs": [],
      "name": "owner",
      "outputs": [
        {
          "internalType": "address",
          "name": "",
          "type": "address"
        }
      ],
      "payable": false,
      "stateMutability": "view",
      "type": "function"
    },
    {
      "constant": true,
      "inputs": [],
      "name": "currentBalance",
      "outputs": [
        {
          "internalType": "uint256",
          "name": "",
          "type": "uint256"
        }
      ],
      "payable": false,
      "stateMutability": "view",
      "type": "function"
    },
    {
      "constant": false,
      "inputs": [],
      "name": "transfer",
      "outputs": [],
      "payable": true,
      "stateMutability": "payable",
      "type": "function"
    },
    {
      "constant": false,
      "inputs": [],
      "name": "still_isAlive",
      "outputs": [
        {
          "internalType": "bool",
          "name": "",
          "type": "bool"
        }
      ],
      "payable": false,
      "stateMutability": "nonpayable",
      "type": "function"
    }
  ],
  "bytecode": "0x608060405234801561001057600080fd5b506040516104053803806104058339818101604052602081101561003357600080fd5b810190808051906020019092919050505033600160006101000a81548173ffffffffffffffffffffffffffffffffffffffff021916908373ffffffffffffffffffffffffffffffffffffffff160217905550806000806101000a81548173ffffffffffffffffffffffffffffffffffffffff021916908373ffffffffffffffffffffffffffffffffffffffff16021790555060018060146101000a81548160ff02191690831515021790555050610316806100ef6000396000f3fe60806040526004361061004a5760003560e01c80634136aa351461004f5780635f54650f1461007e5780638a4068dd146100ad5780638da5cb5b146100b7578063ce845d1d1461010e575b600080fd5b34801561005b57600080fd5b50610064610139565b604051808215151515815260200191505060405180910390f35b34801561008a57600080fd5b5061009361014c565b604051808215151515815260200191505060405180910390f35b6100b56101de565b005b3480156100c357600080fd5b506100cc6102b3565b604051808273ffffffffffffffffffffffffffffffffffffffff1673ffffffffffffffffffffffffffffffffffffffff16815260200191505060405180910390f35b34801561011a57600080fd5b506101236102d9565b6040518082815260200191505060405180910390f35b600160149054906101000a900460ff1681565b6000600160009054906101000a900473ffffffffffffffffffffffffffffffffffffffff1673ffffffffffffffffffffffffffffffffffffffff163373ffffffffffffffffffffffffffffffffffffffff16146101a857600080fd5b60018060146101000a81548160ff02191690831515021790555042600281905550600160149054906101000a900460ff16905090565b6000809054906101000a900473ffffffffffffffffffffffffffffffffffffffff1673ffffffffffffffffffffffffffffffffffffffff163373ffffffffffffffffffffffffffffffffffffffff161461023757600080fd5b60146002540142101561024957600080fd5b6000809054906101000a900473ffffffffffffffffffffffffffffffffffffffff1673ffffffffffffffffffffffffffffffffffffffff166108fc479081150290604051600060405180830381858888f193505050501580156102b0573d6000803e3d6000fd5b50565b600160009054906101000a900473ffffffffffffffffffffffffffffffffffffffff1681565b60004790509056fea265627a7a7231582082f785f53009cc8b74ca5d004d4dcd4be1d7e2a10a138b5c713763129f397b4264736f6c63430005100032",
  "source": "pragma solidity >= 0.5.0 < 0.7.0;\n\ncontract DeadSwitch {\n\n    address payable backupAddress;\n    address public owner;\n    bool public isAlive;\n    uint256 lastSeen;\n    \n\n    constructor(address payable _backupAddress) public {\n            owner = msg.sender;\n            backupAddress = _backupAddress;\n            isAlive = true;\n    }\n\n\n    modifier onlyOwner() { \n        require (msg.sender == owner); \n        _; \n    }\n  \n\n\n\n\n    function currentBalance() public view returns (uint256) {\n        return address(this).balance;\n    }\n\n    function transfer() public payable {\n        require(msg.sender == backupAddress);\n        require(block.timestamp >= (lastSeen + 20 seconds));\n       \n        backupAddress.transfer(address(this).balance);\n    }\n\n      function still_isAlive() public onlyOwner returns(bool) {\n        isAlive = true;\n        lastSeen = block.timestamp;\n        return isAlive;\n    }\n\n}\n\n",
  "sourcePath": "/home/zaryab/blockchain_begins/all_about_ethereum/dapps/deadManSwitch/contracts/DeadSwitch.sol",
  "compiler": {
    "name": "solc",
    "version": "0.5.16+commit.9c3226ce.Emscripten.clang"
  },
  "schemaVersion": "3.0.23",
  "updatedAt": "2020-06-21T17:11:39.726Z",
  "devdoc": {
    "methods": {}
  },
  "userdoc": {
    "methods": {}
  }
}